:100000000C9462000C948A000C948A000C948A0070
:100010000C948A000C948A000C948A000C948A0038
:100020000C948A000C948A000C948A000C948A0028
:100030000C948A000C948A000C948A000C948A0018
:100040000C94CB040C948A000C9499040C947304C3
:100050000C948A000C948A000C948A000C948A00F8
:100060000C948A000C948A000000000023002600F3
:10007000290000000000240027002A0000000000E2
:10008000250028002B0000000008000201000003EA
:10009000040700000000000000000404040404043D
:1000A0000404020202020202030303030303010227
:1000B00004081020408001020408102001020408F6
:1000C0001020150511241FBECFEFD8E0DEBFCDBF35
:1000D00011E0A0E0B1E0ECE3F0E102C005900D9288
:1000E000A231B107D9F721E0A2E1B1E001C01D9230
:1000F000A23EB207E1F710E0C2E6D0E004C02197CB
:10010000FE010E941608C136D107C9F70E947C057E
:100110000C941C080C940000CF92DF92EF92FF9297
:100120001F93CF93DF93EC018E818C3009F44DC087
:1001300038F48B30E1F060E070E080EC9FE73DC088
:1001400085518230C0F71A81612F70E0762F6627C3
:1001500066277F778B81682B90E080E00E94ED0618
:100160002DEC3CEC4CEC5DE30E94800748C06A81BA
:1001700070E090E080E00E94ED066B017C01CB8195
:10018000C7FF0AC0AC019B0160E070E080E89FEB14
:100190000E9480066B017C01CF706C2F70E090E0B4
:1001A00080E00E94EF062DEC3CEC4CEC5DE30E94FD
:1001B0008007A70196010E948106DF91CF911F91D0
:1001C000FF90EF90DF90CF9008951A81612F70E03B
:1001D00090E080E00E94ED066B017C016B816F7006
:1001E00070E090E080E00E94EF062DEC3CEC4CECDF
:1001F0005DE30E948007A70196010E94810617FF18
:10020000DCCF9058DACFFC01538D448D252F30E0A0
:10021000842F90E0821B930B541710F0CF96089513
:1002200001970895FC01918D828D981761F0A28D40
:10023000AE0FBF2FB11D5D968C91928D9F5F9F7306
:10024000928F90E008958FEF9FEF0895FC01918DBC
:10025000828D981731F0828DE80FF11D858D90E029
:1002600008958FEF9FEF0895FC01918D228D892FC6
:1002700090E0805C9F4F821B91098F7399270895AE
:10028000FC01A48DA80FB92FB11DA35ABF4F2C910B
:10029000848D90E001968F739927848FA689B78902
:1002A0002C93A089B1898C91837080648C93938DF9
:1002B000848D981306C00288F389E02D80818F7D9C
:1002C00080830895EF92FF920F931F93CF93DF9354
:1002D000EC0181E0888F9B8D8C8D98131AC0E88982
:1002E000F989808185FF15C09FB7F894EE89FF8951
:1002F0006083E889F98980818370806480839FBFEF
:1003000081E090E0DF91CF911F910F91FF90EF90EE
:100310000895F62E0B8D10E00F5F1F4F0F731127FE
:10032000E02E8C8D8E110CC00FB607FCFACFE88939
:10033000F989808185FFF5CFCE010E944001F1CF80
:10034000EB8DEC0FFD2FF11DE35AFF4FF0829FB7AD
:10035000F8940B8FEA89FB8980818062CFCFCF939D
:10036000DF93EC01888D8823B9F0AA89BB89E889DD
:10037000F9898C9185FD03C0808186FD0DC00FB683
:1003800007FCF7CF8C9185FFF2CF808185FFEDCF01
:10039000CE010E944001E9CFDF91CF9108958FE116
:1003A00091E00E94340121E0892B09F420E0822FA2
:1003B000089580E090E0892B29F00E94CF018111FF
:1003C0000C9400000895AF92BF92CF92DF92EF920B
:1003D000FF920F931F93CF93DF936C017B018B01EF
:1003E000040F151FEB015E01AE18BF08C017D1073F
:1003F00059F06991D601ED91FC910190F081E02DC9
:10040000C6010995892B79F7C501DF91CF911F911D
:100410000F91FF90EF90DF90CF90BF90AF90089535
:1004200090E0FC01EA57FF4F2491FC01E255FF4F99
:100430003491FC01E656FF4FE491EE23C9F02223EC
:1004400039F0233001F1A8F4213019F1223029F1DB
:10045000F0E0EE0FFF1FE458FF4FA591B4918FB766
:10046000F894EC91611126C030953E233C938FBFE8
:1004700008952730A9F02830C9F0243049F7809139
:1004800080008F7D03C0809180008F7780938000F3
:10049000DFCF84B58F7784BDDBCF84B58F7DFBCF75
:1004A0008091B0008F778093B000D2CF8091B00060
:1004B0008F7DF9CF3E2BDACFCF93DF9390E0FC0115
:1004C000E255FF4F249186569F4FFC01849188236B
:1004D000D1F090E0880F991FFC01EE58FF4FA591D5
:1004E000B491FC01E458FF4FC591D491623071F48E
:1004F0009FB7F8943C91822F809583238C93E88159
:100500002E2B28839FBFDF91CF9108958FB7F8944A
:10051000EC912E2B2C938FBFF6CF3FB7F8948091A0
:10052000130190911401A0911501B091160126B507
:10053000A89B05C02F3F19F00196A11DB11D3FBF1B
:10054000BA2FA92F982F8827BC01CD01620F711DEA
:10055000811D911D42E0660F771F881F991F4A95E4
:10056000D1F708958F929F92AF92BF92CF92DF9270
:10057000EF92FF924B015C010E948D026B017C01A6
:100580000E948D026C197D098E099F09683E734097
:1005900081059105A8F321E0821A9108A108B1080C
:1005A00088EEC80E83E0D81EE11CF11C8114910472
:1005B000A104B10429F7FF90EF90DF90CF90BF9096
:1005C000AF909F908F900895CF92DF92EF92FF921D
:1005D000CF93DF93DC011796CC911797D0E0611190
:1005E000DC2F18962C91189730E0220F331F2859D2
:1005F0003F4F50E040E0F90185919491FC01F0807B
:10060000BA0190E080E0EF2DEC23ED1310C04F5FB6
:100610005F4F1D96CD90DD90ED90FC9050976C153E
:100620007D058E059F0538F36FEF7FEFCB01DF91DE
:10063000CF91FF90EF90DF90CF9008958F929F928F
:10064000AF92BF92CF92DF92EF92FF920F931F93E0
:10065000CF93DF93CDB7DEB7C054D1400FB6F89437
:10066000DEBF0FBECDBF2FB7F89440911B01509154
:100670001C0160911D0170911E012FBFFC010185BD
:100680001285238534856A017B01C01AD10AE20AEA
:10069000F30A97018601003D174021053105B0F4AA
:1006A000FC018189C05CDE4F0FB6F894DEBF0FBE3F
:1006B000CDBFDF91CF911F910F91FF90EF90DF9011
:1006C000CF90BF90AF909F908F9008958C01FC01C8
:1006D0004187528763877487148213821282118242
:1006E000108262E085810E945C0261E070E080E03F
:1006F00090E00E94B20261E0F80185810E945C02F4
:1007000060E0F80185810E941002F8018681855120
:10071000823028F58BE291E10197F1F762E0F80170
:1007200085810E945C02F801828990E08230910507
:1007300038F0880F991F880F991F05970197F1F7D7
:10074000F89460E0C8010E94E4026F3F7F4F8F4F32
:100750009F4F61F4F801118A789480E0A3CF64E19F
:1007600070E080E090E00E94B202D8CF61E0C80162
:100770000E94E4026F3F7F4F8F4F9F4F59F3CE018E
:1007800001967C015E019FEBA91A9EEFB90A6701F1
:1007900060E0C8010E94E402F601608371838283F5
:1007A000938361E0C8010E94E402F60164837583CB
:1007B00086839783F8E0CF0ED11CCA14DB0441F77F
:1007C000789430E020E0F70180809180A280B380AF
:1007D0004481558166817781FFEF8F169F06AF06B2
:1007E000BF0631F04F3F8FEF58076807780719F4BD
:1007F000F801118AB2CFF90183E0F595E7958A9562
:10080000E1F7E00FF11F8081880F84169506A60698
:10081000B706F0F080832F5F3F4FF8E0EF0EF11C3A
:100820002832310581F6F801448120818181280F29
:100830003327331F8281280F311D8381820F932F2D
:10084000911D99274817190699F681E0818B2ACFC7
:100850008160E0CFCF92DF92EF92FF92CF93DF9350
:10086000EC010E941E03882341F08E818B3028F01A
:100870008D3040F08551823030F160E070E080ECE6
:100880009FE71AC0698170E090E080E00E94EF0667
:100890002DEC3CEC4CEC5DE30E9480076B017C018D
:1008A000688170E090E080E00E94EF069B01AC015F
:1008B000C701B6010E948106DF91CF91FF90EF90B2
:1008C000DF90CF9008956881798176276727762712
:1008D00090E080E00E94ED062DEC3CEC4CEC5DE3FA
:1008E0000E948007E9CF1F920F920FB60F9211243A
:1008F0002F933F934F935F936F937F938F939F9328
:10090000AF93BF93EF93FF938FE191E00E9440017B
:10091000FF91EF91BF91AF919F918F917F916F91D7
:100920005F914F913F912F910F900FBE0F901F90AD
:1009300018951F920F920FB60F9211242F938F9339
:100940009F93EF93FF93E0912F01F091300180810D
:10095000E0913501F091360182FD1BC090818091BC
:1009600038018F5F8F7320913901821741F0E09138
:100970003801F0E0E15EFE4F958F80933801FF91E2
:10098000EF919F918F912F910F900FBE0F901F901D
:1009900018958081F4CF1F920F920FB60F921124F9
:1009A0002F933F938F939F93AF93BF9380911B019E
:1009B00090911C01A0911D01B0911E013091120176
:1009C00023E0230F2D3758F50196A11DB11D20936B
:1009D000120180931B0190931C01A0931D01B09301
:1009E0001E018091130190911401A0911501B09105
:1009F00016010196A11DB11D80931301909314015E
:100A0000A0931501B0931601BF91AF919F918F9163
:100A10003F912F910F900FBE0F901F90189526E8D1
:100A2000230F0296A11DB11DD2CFEFE1F1E0138299
:100A3000128288EE93E0A0E0B0E084839583A683E1
:100A4000B78384E091E09183808385EC90E0958783
:100A5000848784EC90E09787868780EC90E0918B88
:100A6000808B81EC90E0938B828B82EC90E0958B75
:100A7000848B86EC90E0978B868B118E128E138E72
:100A8000148EAFECB1E015961C9215978BE016967C
:100A90008C931697EEEAF0E0E4911796EC93179793
:100AA000EAE9F0E0E4911896EC93189740E85EE3E9
:100AB00060E070E01D964D935D936D937C9350972D
:100AC000ACEBB1E091E015969C93159716968C933C
:100AD0001697EFEAF0E0E4911796EC931797EBE99D
:100AE000F0E0E4911896EC9318971D964D935D9362
:100AF0006D937C9350970895CF93DF93CDB7DEB776
:100B0000CC54D1090FB6F894DEBF0FBECDBF789498
:100B100084B5826084BD84B5816084BD85B5826002
:100B200085BD85B5816085BD80916E0081608093B3
:100B30006E0010928100809181008260809381001C
:100B4000809181008160809381008091800081602C
:100B5000809380008091B10084608093B100809187
:100B6000B00081608093B00080917A0084608093AF
:100B70007A0080917A00826080937A0080917A0076
:100B8000816080937A0080917A00806880937A00F7
:100B90001092C10062E08091D4010E945C022FB7E4
:100BA000F89480911B0190911C01A0911D01B091BE
:100BB0001E012FBF805D9740A109B1098093D80124
:100BC0009093D901A093DA01B093DB0117E310935E
:100BD000E10162E08091C1010E945C022FB7F894AC
:100BE00080911B0190911C01A0911D01B0911E01EB
:100BF0002FBF805D9740A109B1098093C5019093F3
:100C0000C601A093C701B093C8011093CE0161E063
:100C100082E00E945C0261E083E00E945C0200E0EE
:100C200010E083E1EFECF1E0DE01549601900D92CB
:100C30008A95E1F7CE0144960E941E03882381F035
:100C4000CE0144960E948C004B015C019B01AC01DB
:100C50000E94ED07811104C0F82CE92CDA2CCB2C72
:100C60008F2D9E2DAD2DBC2D8093170190931801D3
:100C7000A0931901B0931A0183E1EFECF1E0DE01DA
:100C8000979601900D928A95E1F7CE0187960E9482
:100C90002A0483E1ECEBF1E0DE01119601900D9264
:100CA0008A95E1F7CE0101960E941E0383E1ECEBE9
:100CB000F1E0DE01DA9601900D928A95E1F7CE011E
:100CC000CA960E942A0420E030E040E85FE36F2DDE
:100CD0007E2D8D2D9C2D0E947B0761E018160CF057
:100CE00060E082E00E9410020115110509F499CF1D
:100CF0000E94CF01882309F494CF0E94000091CF75
:100D00005058BB27AA270E9498060C9441070E94BE
:100D1000330738F00E943A0720F039F49F3F19F466
:100D200026F40C9430070EF4E095E7FB0C942A07A8
:100D3000E92F0E94520758F3BA1762077307840716
:100D4000950720F079F4A6F50C9474070EF4E0955D
:100D50000B2EBA2FA02D0B01B90190010C01CA0175
:100D6000A0011124FF27591B99F0593F50F4503E20
:100D700068F11A16F040A22F232F342F4427585F12
:100D8000F3CF469537952795A795F0405395C9F72A
:100D90007EF41F16BA0B620B730B840BBAF09150E2
:100DA000A1F0FF0FBB1F661F771F881FC2F70EC081
:100DB000BA0F621F731F841F48F487957795679554
:100DC000B795F7959E3F08F0B0CF9395880F08F040
:100DD0009927EE0F979587950895E89409C097FB9A
:100DE0003EF490958095709561957F4F8F4F9F4F02
:100DF0009923A9F0F92F96E9BB279395F695879546
:100E000077956795B795F111F8CFFAF4BB0F11F408
:100E100060FF1BC06F5F7F4F8F4F9F4F16C08823AF
:100E200011F096E911C0772321F09EE8872F762FE5
:100E300005C0662371F096E8862F70E060E02AF026
:100E40009A95660F771F881FDAF7880F9695879512
:100E500097F9089597F99F6780E870E060E008953A
:100E60009FEF80EC089500240A94161617061806C2
:100E70000906089500240A9412161306140605069E
:100E80000895092E0394000C11F4882352F0BB0F2F
:100E900040F4BF2B11F460FF04C06F5F7F4F8F4F92
:100EA0009F4F089557FD9058440F551F59F05F3FCD
:100EB00071F04795880F97FB991F61F09F3F79F07C
:100EC00087950895121613061406551FF2CF4695FE
:100ED000F1DF08C0161617061806991FF1CF869580
:100EE0007105610508940895E894BB276627772764
:100EF000CB0197F908950E94F20708F48FEF089547
:100F00000E9493070C9441070E94330738F00E9417
:100F10003A0720F0952311F00C942A070C9430071F
:100F200011240C9475070E94520770F3959FC1F32A
:100F3000950F50E0551F629FF001729FBB27F00D87
:100F4000B11D639FAA27F00DB11DAA1F649F6627DC
:100F5000B00DA11D661F829F2227B00DA11D621F2B
:100F6000739FB00DA11D621F839FA00D611D221FE5
:100F7000749F3327A00D611D231F849F600D211DC9
:100F8000822F762F6A2F11249F5750409AF0F1F04C
:100F900088234AF0EE0FFF1FBB1F661F771F881FB5
:100FA00091505040A9F79E3F510580F00C942A07BC
:100FB0000C9475075F3FE4F3983ED4F386957795DC
:100FC0006795B795F795E7959F5FC1F7FE2B880F5B
:100FD000911D9695879597F908950E94F207880BC1
:100FE000990B0895990F0008550FAA0BE0E8FEEF42
:100FF00016161706E807F907C0F012161306E407DD
:10100000F50798F0621B730B840B950B39F40A26D5
:1010100061F0232B242B252B21F408950A2609F4B3
:10102000A140A6958FEF811D811D0895EE0FFF1F32
:0C1030000590F491E02D0994F894FFCF96
:10103C00000000006201E3010301AF013401120161
:02104C0026017B
:00000001FF
