:100000000C9462000C948A000C948A000C948A0070
:100010000C948A000C948A000C948A000C948A0038
:100020000C948A000C948A000C948A000C948A0028
:100030000C948A000C948A000C948A000C948A0018
:100040000C9409040C948A000C94D7030C94B1030B
:100050000C948A000C948A000C948A000C948A00F8
:100060000C948A000C948A000000000023002600F3
:10007000290000000000240027002A0000000000E2
:10008000250028002B0000000008000201000003EA
:10009000040700000000000000000404040404043D
:1000A0000404020202020202030303030303010227
:1000B00004081020408001020408102001020408F6
:1000C0001020530411241FBECFEFD8E0DEBFCDBFF8
:1000D00011E0A0E0B1E0EAE7FAE002C005900D927D
:1000E000A231B107D9F721E0A2E1B1E001C01D9230
:1000F000AB3CB207E1F710E0C2E6D0E004C02197C4
:10010000FE010E943505C136D107C9F70E949F0440
:100110000C943B050C940000FC01538D448D252F5D
:1001200030E0842F90E0821B930B541710F0CF9691
:10013000089501970895FC01918D828D981761F0C3
:10014000A28DAE0FBF2FB11D5D968C91928D9F5FDA
:100150009F73928F90E008958FEF9FEF0895FC01B9
:10016000918D828D981731F0828DE80FF11D858D6C
:1001700090E008958FEF9FEF0895FC01918D228DFF
:10018000892F90E0805C9F4F821B91098F73992784
:100190000895FC01A48DA80FB92FB11DA35ABF4F1C
:1001A0002C91848D90E001968F739927848FA68976
:1001B000B7892C93A089B1898C91837080648C93CA
:1001C000938D848D981306C00288F389E02D808179
:1001D0008F7D80830895EF92FF920F931F93CF93AB
:1001E000DF93EC0181E0888F9B8D8C8D98131AC072
:1001F000E889F989808185FF15C09FB7F894EE8959
:10020000FF896083E889F9898081837080648083B5
:100210009FBF81E090E0DF91CF911F910F91FF9000
:10022000EF900895F62E0B8D10E00F5F1F4F0F73A8
:100230001127E02E8C8D8E110CC00FB607FCFACF63
:10024000E889F989808185FFF5CFCE010E94C90038
:10025000F1CFEB8DEC0FFD2FF11DE35AFF4FF08234
:100260009FB7F8940B8FEA89FB8980818062CFCF9A
:10027000CF93DF93EC01888D8823B9F0AA89BB89DD
:10028000E889F9898C9185FD03C0808186FD0DC0C8
:100290000FB607FCF7CF8C9185FFF2CF808185FFE9
:1002A000EDCFCE010E94C900E9CFDF91CF91089533
:1002B0008BE191E00E94BD0021E0892B09F420E050
:1002C000822F089580E090E0892B29F00E94580148
:1002D00081110C9400000895AF92BF92CF92DF92EB
:1002E000EF92FF920F931F93CF93DF936C017B01EB
:1002F0008B01040F151FEB015E01AE18BF08C0177C
:10030000D10759F06991D601ED91FC910190F081EE
:10031000E02DC6010995892B79F7C501DF91CF91B1
:100320001F910F91FF90EF90DF90CF90BF90AF9013
:100330000895CF93DF9390E0FC01E255FF4F2491A5
:1003400086569F4FFC0184918823D1F090E0880F5E
:10035000991FFC01EE58FF4FA591B491FC01E458A0
:10036000FF4FC591D491623071F49FB7F8943C91DE
:10037000822F809583238C93E8812E2B28839FBF27
:10038000DF91CF9108958FB7F894EC912E2B2C9399
:100390008FBFF6CF3FB7F89480911301909114016D
:1003A000A0911501B091160126B5A89B05C02F3F5D
:1003B00019F00196A11DB11D3FBFBA2FA92F982F8B
:1003C0008827BC01CD01620F711D811D911D42E086
:1003D000660F771F881F991F4A95D1F708958F924E
:1003E0009F92AF92BF92CF92DF92EF92FF924B011A
:1003F0005C010E94CA016B017C010E94CA016C1958
:100400007D098E099F09683E734081059105A8F317
:1004100021E0821A9108A108B10888EEC80E83E095
:10042000D81EE11CF11C81149104A104B10429F728
:10043000FF90EF90DF90CF90BF90AF909F908F9004
:100440000895CF92DF92EF92FF92CF93DF93DC017A
:100450001796CC911797D0E06111DC2F18962C914C
:10046000189730E0220F331F28593F4F50E040E0EB
:10047000F90185919491FC01F080BA0190E080E04F
:10048000EF2DEC23ED1310C04F5F5F4F1D96CD9005
:10049000DD90ED90FC9050976C157D058E059F05C5
:1004A00038F36FEF7FEFCB01DF91CF91FF90EF90AB
:1004B000DF90CF9008958F929F92AF92BF92CF928C
:1004C000DF92EF92FF920F931F93CF93DF93CDB7FD
:1004D000DEB7C054D1400FB6F894DEBF0FBECDBF1B
:1004E0002FB7F894409117015091180160911901AC
:1004F00070911A012FBFFC01018512852385348577
:100500006A017B01C01AD10AE20AF30A9701860147
:10051000003D174021053105B0F4FC018189C05C24
:10052000DE4F0FB6F894DEBF0FBECDBFDF91CF9187
:100530001F910F91FF90EF90DF90CF90BF90AF9001
:100540009F908F9008958C01FC01418752876387AB
:1005500074871482138212821182108262E0858174
:100560000E94990161E070E080E090E00E94EF015C
:1005700061E0F80185810E949901F801858190E090
:10058000FC01EA57FF4F2491FC01E255FF4F3491E3
:10059000FC01E656FF4FE491EE23D9F0222359F0F7
:1005A000233009F44CC008F03FC0213009F44DC09D
:1005B000223009F44EC0F0E0EE0FFF1FE458FF4F69
:1005C000A591B4918FB7F894EC9130953E233C936C
:1005D0008FBFF80186818551823008F047C08BE2D9
:1005E00091E10197F1F762E0F80185810E9499019C
:1005F000F801828990E08230910538F0880F991FC8
:10060000880F991F05970197F1F7F89460E0C801EA
:100610000E9421026F3F7F4F8F4F9F4F71F5F8016E
:10062000118A789480E07BCF2730B1F02830D1F068
:10063000243009F0C0CF809180008F7D03C080916D
:1006400080008F7780938000B6CF84B58F7784BD8C
:10065000B2CF84B58F7DFBCF8091B0008F77809330
:10066000B000A9CF8091B0008F7DF9CF64E170E038
:1006700080E090E00E94EF01B6CF61E0C8010E94E7
:1006800021026F3F7F4F8F4F9F4F49F2CE0101965E
:100690007C015E019FEBA91A9EEFB90A670160E039
:1006A000C8010E942102F6016083718382839383D3
:1006B00061E0C8010E942102F6016483758386838C
:1006C0009783F8E0CF0ED11CAC14BD0441F77894A9
:1006D00030E020E0F70180809180A280B3804481E7
:1006E000558166817781FFEF8F169F06AF06BF06A3
:1006F00031F04F3F8FEF58076807780719F4F8017A
:10070000118A90CFF90183E0F595E7958A95E1F795
:10071000E00FF11F8081880F84169506A606B706A4
:10072000F0F080832F5F3F4FF8E0EF0EF11C28328E
:10073000310581F6F801448120818181280F33271A
:10074000331F8281280F311D8381820F932F911DCA
:1007500099274817190699F681E0818BE0CE8160D0
:10076000E0CF1F920F920FB60F9211242F933F9359
:100770004F935F936F937F938F939F93AF93BF93A9
:10078000EF93FF938BE191E00E94C900FF91EF91FD
:10079000BF91AF919F918F917F916F915F914F9199
:1007A0003F912F910F900FBE0F901F9018951F92A1
:1007B0000F920FB60F9211242F938F939F93EF9365
:1007C000FF93E0912B01F0912C018081E0913101A8
:1007D000F091320182FD1BC09081809134018F5FC6
:1007E0008F7320913501821741F0E0913401F0E0E0
:1007F000E55EFE4F958F80933401FF91EF919F91BD
:100800008F912F910F900FBE0F901F9018958081A0
:10081000F4CF1F920F920FB60F9211242F933F9394
:100820008F939F93AF93BF9380911701909118017D
:10083000A0911901B0911A013091120123E0230F08
:100840002D3758F50196A11DB11D209312018093FB
:10085000170190931801A0931901B0931A01809188
:10086000130190911401A0911501B0911601019608
:10087000A11DB11D8093130190931401A093150144
:10088000B0931601BF91AF919F918F913F912F919E
:100890000F900FBE0F901F90189526E8230F029619
:1008A000A11DB11DD2CFEBE1F1E01382128288EEDF
:1008B00093E0A0E0B0E084839583A683B78384E0CF
:1008C00091E09183808385EC90E09587848784EC28
:1008D00090E09787868780EC90E0918B808B81EC0D
:1008E00090E0938B828B82EC90E0958B848B86ECEE
:1008F00090E0978B868B118E128E138E148EA8EB40
:10090000B1E015961C9215978BE016968C9316976E
:10091000EEEAF0E0E4911796EC931797EAE9F0E03D
:10092000E4911896EC93189740E85EE360E070E07D
:100930001D964D935D936D937C9350970895CF933F
:10094000DF93CDB7DEB7A6970FB6F894DEBF0FBE24
:10095000CDBF789484B5826084BD84B5816084BD48
:1009600085B5826085BD85B5816085BD80916E004D
:10097000816080936E00109281008091810082607E
:1009800080938100809181008160809381008091BB
:1009900080008160809380008091B10084608093AA
:1009A000B1008091B00081608093B00080917A00A6
:1009B000846080937A0080917A00826080937A00CC
:1009C00080917A00816080937A0080917A008068BB
:1009D00080937A001092C10062E08091BD010E9474
:1009E00099012FB7F8948091170190911801A09167
:1009F0001901B0911A012FBF805D9740A109B1097B
:100A00008093C1019093C201A093C301B093C4012C
:100A100087E38093CA0161E081E00E94990100E0D0
:100A200010E083E1E8EBF1E0DE01119601900D9218
:100A30008A95E1F7CE0101960E945B0283E1E8EB23
:100A4000F1E0DE01549601900D928A95E1F7CE0116
:100A500044960E945B020115110519F30E9458018A
:100A60008823F9F20E940000DCCFEE0FFF1F0590F3
:0A0A7000F491E02D0994F894FFCFF3
:100A7A0000000000EB006C018C003801BD009B00F7
:020A8A00AF00BB
:00000001FF
